{
  "_format": "hh-sol-artifact-1",
  "contractName": "LazyArtCoin",
  "sourceName": "contracts/LazyArtCoin.sol",
  "abi": [
    {
      "inputs": [
        {
          "internalType": "address",
          "name": "initialOwner",
          "type": "address"
        },
        {
          "internalType": "address",
          "name": "treasury_",
          "type": "address"
        },
        {
          "internalType": "uint256",
          "name": "initialSupply",
          "type": "uint256"
        }
      ],
      "stateMutability": "nonpayable",
      "type": "constructor"
    },
    {
      "inputs": [],
      "name": "ECDSAInvalidSignature",
      "type": "error"
    },
    {
      "inputs": [
        {
          "internalType": "uint256",
          "name": "length",
          "type": "uint256"
        }
      ],
      "name": "ECDSAInvalidSignatureLength",
      "type": "error"
    },
    {
      "inputs": [
        {
          "internalType": "bytes32",
          "name": "s",
          "type": "bytes32"
        }
      ],
      "name": "ECDSAInvalidSignatureS",
      "type": "error"
    },
    {
      "inputs": [
        {
          "internalType": "address",
          "name": "spender",
          "type": "address"
        },
        {
          "internalType": "uint256",
          "name": "allowance",
          "type": "uint256"
        },
        {
          "internalType": "uint256",
          "name": "needed",
          "type": "uint256"
        }
      ],
      "name": "ERC20InsufficientAllowance",
      "type": "error"
    },
    {
      "inputs": [
        {
          "internalType": "address",
          "name": "sender",
          "type": "address"
        },
        {
          "internalType": "uint256",
          "name": "balance",
          "type": "uint256"
        },
        {
          "internalType": "uint256",
          "name": "needed",
          "type": "uint256"
        }
      ],
      "name": "ERC20InsufficientBalance",
      "type": "error"
    },
    {
      "inputs": [
        {
          "internalType": "address",
          "name": "approver",
          "type": "address"
        }
      ],
      "name": "ERC20InvalidApprover",
      "type": "error"
    },
    {
      "inputs": [
        {
          "internalType": "address",
          "name": "receiver",
          "type": "address"
        }
      ],
      "name": "ERC20InvalidReceiver",
      "type": "error"
    },
    {
      "inputs": [
        {
          "internalType": "address",
          "name": "sender",
          "type": "address"
        }
      ],
      "name": "ERC20InvalidSender",
      "type": "error"
    },
    {
      "inputs": [
        {
          "internalType": "address",
          "name": "spender",
          "type": "address"
        }
      ],
      "name": "ERC20InvalidSpender",
      "type": "error"
    },
    {
      "inputs": [
        {
          "internalType": "uint256",
          "name": "deadline",
          "type": "uint256"
        }
      ],
      "name": "ERC2612ExpiredSignature",
      "type": "error"
    },
    {
      "inputs": [
        {
          "internalType": "address",
          "name": "signer",
          "type": "address"
        },
        {
          "internalType": "address",
          "name": "owner",
          "type": "address"
        }
      ],
      "name": "ERC2612InvalidSigner",
      "type": "error"
    },
    {
      "inputs": [],
      "name": "EnforcedPause",
      "type": "error"
    },
    {
      "inputs": [],
      "name": "ExpectedPause",
      "type": "error"
    },
    {
      "inputs": [
        {
          "internalType": "address",
          "name": "account",
          "type": "address"
        },
        {
          "internalType": "uint256",
          "name": "currentNonce",
          "type": "uint256"
        }
      ],
      "name": "InvalidAccountNonce",
      "type": "error"
    },
    {
      "inputs": [],
      "name": "InvalidShortString",
      "type": "error"
    },
    {
      "inputs": [
        {
          "internalType": "address",
          "name": "owner",
          "type": "address"
        }
      ],
      "name": "OwnableInvalidOwner",
      "type": "error"
    },
    {
      "inputs": [
        {
          "internalType": "address",
          "name": "account",
          "type": "address"
        }
      ],
      "name": "OwnableUnauthorizedAccount",
      "type": "error"
    },
    {
      "inputs": [
        {
          "internalType": "string",
          "name": "str",
          "type": "string"
        }
      ],
      "name": "StringTooLong",
      "type": "error"
    },
    {
      "anonymous": false,
      "inputs": [
        {
          "indexed": true,
          "internalType": "address",
          "name": "owner",
          "type": "address"
        },
        {
          "indexed": true,
          "internalType": "address",
          "name": "spender",
          "type": "address"
        },
        {
          "indexed": false,
          "internalType": "uint256",
          "name": "value",
          "type": "uint256"
        }
      ],
      "name": "Approval",
      "type": "event"
    },
    {
      "anonymous": false,
      "inputs": [],
      "name": "EIP712DomainChanged",
      "type": "event"
    },
    {
      "anonymous": false,
      "inputs": [
        {
          "indexed": true,
          "internalType": "address",
          "name": "previousOwner",
          "type": "address"
        },
        {
          "indexed": true,
          "internalType": "address",
          "name": "newOwner",
          "type": "address"
        }
      ],
      "name": "OwnershipTransferred",
      "type": "event"
    },
    {
      "anonymous": false,
      "inputs": [
        {
          "indexed": false,
          "internalType": "address",
          "name": "account",
          "type": "address"
        }
      ],
      "name": "Paused",
      "type": "event"
    },
    {
      "anonymous": false,
      "inputs": [
        {
          "indexed": true,
          "internalType": "address",
          "name": "from",
          "type": "address"
        },
        {
          "indexed": true,
          "internalType": "address",
          "name": "to",
          "type": "address"
        },
        {
          "indexed": false,
          "internalType": "uint256",
          "name": "value",
          "type": "uint256"
        }
      ],
      "name": "Transfer",
      "type": "event"
    },
    {
      "anonymous": false,
      "inputs": [
        {
          "indexed": true,
          "internalType": "address",
          "name": "previousTreasury",
          "type": "address"
        },
        {
          "indexed": true,
          "internalType": "address",
          "name": "newTreasury",
          "type": "address"
        }
      ],
      "name": "TreasuryUpdated",
      "type": "event"
    },
    {
      "anonymous": false,
      "inputs": [
        {
          "indexed": false,
          "internalType": "address",
          "name": "account",
          "type": "address"
        }
      ],
      "name": "Unpaused",
      "type": "event"
    },
    {
      "inputs": [],
      "name": "DOMAIN_SEPARATOR",
      "outputs": [
        {
          "internalType": "bytes32",
          "name": "",
          "type": "bytes32"
        }
      ],
      "stateMutability": "view",
      "type": "function"
    },
    {
      "inputs": [
        {
          "internalType": "address",
          "name": "owner",
          "type": "address"
        },
        {
          "internalType": "address",
          "name": "spender",
          "type": "address"
        }
      ],
      "name": "allowance",
      "outputs": [
        {
          "internalType": "uint256",
          "name": "",
          "type": "uint256"
        }
      ],
      "stateMutability": "view",
      "type": "function"
    },
    {
      "inputs": [
        {
          "internalType": "address",
          "name": "spender",
          "type": "address"
        },
        {
          "internalType": "uint256",
          "name": "value",
          "type": "uint256"
        }
      ],
      "name": "approve",
      "outputs": [
        {
          "internalType": "bool",
          "name": "",
          "type": "bool"
        }
      ],
      "stateMutability": "nonpayable",
      "type": "function"
    },
    {
      "inputs": [
        {
          "internalType": "address",
          "name": "account",
          "type": "address"
        }
      ],
      "name": "balanceOf",
      "outputs": [
        {
          "internalType": "uint256",
          "name": "",
          "type": "uint256"
        }
      ],
      "stateMutability": "view",
      "type": "function"
    },
    {
      "inputs": [
        {
          "internalType": "uint256",
          "name": "value",
          "type": "uint256"
        }
      ],
      "name": "burn",
      "outputs": [],
      "stateMutability": "nonpayable",
      "type": "function"
    },
    {
      "inputs": [
        {
          "internalType": "address",
          "name": "account",
          "type": "address"
        },
        {
          "internalType": "uint256",
          "name": "value",
          "type": "uint256"
        }
      ],
      "name": "burnFrom",
      "outputs": [],
      "stateMutability": "nonpayable",
      "type": "function"
    },
    {
      "inputs": [],
      "name": "decimals",
      "outputs": [
        {
          "internalType": "uint8",
          "name": "",
          "type": "uint8"
        }
      ],
      "stateMutability": "view",
      "type": "function"
    },
    {
      "inputs": [],
      "name": "eip712Domain",
      "outputs": [
        {
          "internalType": "bytes1",
          "name": "fields",
          "type": "bytes1"
        },
        {
          "internalType": "string",
          "name": "name",
          "type": "string"
        },
        {
          "internalType": "string",
          "name": "version",
          "type": "string"
        },
        {
          "internalType": "uint256",
          "name": "chainId",
          "type": "uint256"
        },
        {
          "internalType": "address",
          "name": "verifyingContract",
          "type": "address"
        },
        {
          "internalType": "bytes32",
          "name": "salt",
          "type": "bytes32"
        },
        {
          "internalType": "uint256[]",
          "name": "extensions",
          "type": "uint256[]"
        }
      ],
      "stateMutability": "view",
      "type": "function"
    },
    {
      "inputs": [
        {
          "internalType": "address",
          "name": "account",
          "type": "address"
        },
        {
          "internalType": "uint256",
          "name": "rawAmount",
          "type": "uint256"
        }
      ],
      "name": "mintRaw",
      "outputs": [],
      "stateMutability": "nonpayable",
      "type": "function"
    },
    {
      "inputs": [
        {
          "internalType": "address",
          "name": "account",
          "type": "address"
        },
        {
          "internalType": "uint256",
          "name": "wholeTokens",
          "type": "uint256"
        }
      ],
      "name": "mintTo",
      "outputs": [],
      "stateMutability": "nonpayable",
      "type": "function"
    },
    {
      "inputs": [
        {
          "internalType": "uint256",
          "name": "wholeTokens",
          "type": "uint256"
        }
      ],
      "name": "mintToTreasury",
      "outputs": [],
      "stateMutability": "nonpayable",
      "type": "function"
    },
    {
      "inputs": [],
      "name": "name",
      "outputs": [
        {
          "internalType": "string",
          "name": "",
          "type": "string"
        }
      ],
      "stateMutability": "view",
      "type": "function"
    },
    {
      "inputs": [
        {
          "internalType": "address",
          "name": "owner",
          "type": "address"
        }
      ],
      "name": "nonces",
      "outputs": [
        {
          "internalType": "uint256",
          "name": "",
          "type": "uint256"
        }
      ],
      "stateMutability": "view",
      "type": "function"
    },
    {
      "inputs": [],
      "name": "owner",
      "outputs": [
        {
          "internalType": "address",
          "name": "",
          "type": "address"
        }
      ],
      "stateMutability": "view",
      "type": "function"
    },
    {
      "inputs": [],
      "name": "pause",
      "outputs": [],
      "stateMutability": "nonpayable",
      "type": "function"
    },
    {
      "inputs": [],
      "name": "paused",
      "outputs": [
        {
          "internalType": "bool",
          "name": "",
          "type": "bool"
        }
      ],
      "stateMutability": "view",
      "type": "function"
    },
    {
      "inputs": [
        {
          "internalType": "address",
          "name": "owner",
          "type": "address"
        },
        {
          "internalType": "address",
          "name": "spender",
          "type": "address"
        },
        {
          "internalType": "uint256",
          "name": "value",
          "type": "uint256"
        },
        {
          "internalType": "uint256",
          "name": "deadline",
          "type": "uint256"
        },
        {
          "internalType": "uint8",
          "name": "v",
          "type": "uint8"
        },
        {
          "internalType": "bytes32",
          "name": "r",
          "type": "bytes32"
        },
        {
          "internalType": "bytes32",
          "name": "s",
          "type": "bytes32"
        }
      ],
      "name": "permit",
      "outputs": [],
      "stateMutability": "nonpayable",
      "type": "function"
    },
    {
      "inputs": [],
      "name": "renounceOwnership",
      "outputs": [],
      "stateMutability": "nonpayable",
      "type": "function"
    },
    {
      "inputs": [
        {
          "internalType": "address",
          "name": "newTreasury",
          "type": "address"
        }
      ],
      "name": "setTreasury",
      "outputs": [],
      "stateMutability": "nonpayable",
      "type": "function"
    },
    {
      "inputs": [],
      "name": "symbol",
      "outputs": [
        {
          "internalType": "string",
          "name": "",
          "type": "string"
        }
      ],
      "stateMutability": "view",
      "type": "function"
    },
    {
      "inputs": [],
      "name": "totalSupply",
      "outputs": [
        {
          "internalType": "uint256",
          "name": "",
          "type": "uint256"
        }
      ],
      "stateMutability": "view",
      "type": "function"
    },
    {
      "inputs": [
        {
          "internalType": "address",
          "name": "to",
          "type": "address"
        },
        {
          "internalType": "uint256",
          "name": "value",
          "type": "uint256"
        }
      ],
      "name": "transfer",
      "outputs": [
        {
          "internalType": "bool",
          "name": "",
          "type": "bool"
        }
      ],
      "stateMutability": "nonpayable",
      "type": "function"
    },
    {
      "inputs": [
        {
          "internalType": "address",
          "name": "from",
          "type": "address"
        },
        {
          "internalType": "address",
          "name": "to",
          "type": "address"
        },
        {
          "internalType": "uint256",
          "name": "value",
          "type": "uint256"
        }
      ],
      "name": "transferFrom",
      "outputs": [
        {
          "internalType": "bool",
          "name": "",
          "type": "bool"
        }
      ],
      "stateMutability": "nonpayable",
      "type": "function"
    },
    {
      "inputs": [
        {
          "internalType": "address",
          "name": "newOwner",
          "type": "address"
        }
      ],
      "name": "transferOwnership",
      "outputs": [],
      "stateMutability": "nonpayable",
      "type": "function"
    },
    {
      "inputs": [],
      "name": "treasury",
      "outputs": [
        {
          "internalType": "address",
          "name": "",
          "type": "address"
        }
      ],
      "stateMutability": "view",
      "type": "function"
    },
    {
      "inputs": [],
      "name": "unpause",
      "outputs": [],
      "stateMutability": "nonpayable",
      "type": "function"
    }
  ],
  "bytecode": "0x6101606040523480156200001257600080fd5b5060405162001d2a38038062001d2a833981016040819052620000359162000597565b826040518060400160405280600b81526020016a2630bd3ca0b93a21b7b4b760a91b81525080604051806040016040528060018152602001603160f81b8152506040518060400160405280600b81526020016a2630bd3ca0b93a21b7b4b760a91b815250604051806040016040528060038152602001624c414360e81b8152508160039081620000c691906200067e565b506004620000d582826200067e565b50620000e791508390506005620002c6565b61012052620000f8816006620002c6565b61014052815160208084019190912060e052815190820120610100524660a0526200018660e05161010051604080517f8b73c3c69bb8fe3d512ecc4cf759cc79239f7b179b0ffacaa9a75d522b39400f60208201529081019290925260608201524660808201523060a082015260009060c00160405160208183030381529060405280519060200120905090565b60805250503060c052506001600160a01b038116620001c057604051631e4fbdf760e01b8152600060048201526024015b60405180910390fd5b620001cb81620002ff565b506001600160a01b038316620002245760405162461bcd60e51b815260206004820152601460248201527f4f776e65722063616e6e6f74206265207a65726f0000000000000000000000006044820152606401620001b7565b6001600160a01b0382166200027c5760405162461bcd60e51b815260206004820152601760248201527f54726561737572792063616e6e6f74206265207a65726f0000000000000000006044820152606401620001b7565b600980546001600160a01b0319166001600160a01b0384161790558015620002bd57620002bd82620002b7670de0b6b3a76400008462000760565b62000351565b50505062000806565b6000602083511015620002e657620002de836200038f565b9050620002f9565b81620002f384826200067e565b5060ff90505b92915050565b600880546001600160a01b038381166001600160a01b0319831681179093556040519116919082907f8be0079c531659141344cd1fd0a4f28419497f9722a3daafe3b4186f6b6457e090600090a35050565b6001600160a01b0382166200037d5760405163ec442f0560e01b815260006004820152602401620001b7565b6200038b60008383620003d2565b5050565b600080829050601f81511115620003bd578260405163305a27a960e01b8152600401620001b791906200077a565b8051620003ca82620007cb565b179392505050565b620003e6600854600160a01b900460ff1690565b15620004355760405162461bcd60e51b815260206004820152601a60248201527f546f6b656e207472616e736665727320617265207061757365640000000000006044820152606401620001b7565b6200044283838362000447565b505050565b6001600160a01b038316620004765780600260008282546200046a9190620007f0565b90915550620004ea9050565b6001600160a01b03831660009081526020819052604090205481811015620004cb5760405163391434e360e21b81526001600160a01b03851660048201526024810182905260448101839052606401620001b7565b6001600160a01b03841660009081526020819052604090209082900390555b6001600160a01b038216620005085760028054829003905562000527565b6001600160a01b03821660009081526020819052604090208054820190555b816001600160a01b0316836001600160a01b03167fddf252ad1be2c89b69c2b068fc378daa952ba7f163c4a11628f55a4df523b3ef836040516200056d91815260200190565b60405180910390a3505050565b80516001600160a01b03811681146200059257600080fd5b919050565b600080600060608486031215620005ad57600080fd5b620005b8846200057a565b9250620005c8602085016200057a565b9150604084015190509250925092565b634e487b7160e01b600052604160045260246000fd5b600181811c908216806200060357607f821691505b6020821081036200062457634e487b7160e01b600052602260045260246000fd5b50919050565b601f82111562000442576000816000526020600020601f850160051c81016020861015620006555750805b601f850160051c820191505b81811015620006765782815560010162000661565b505050505050565b81516001600160401b038111156200069a576200069a620005d8565b620006b281620006ab8454620005ee565b846200062a565b602080601f831160018114620006ea5760008415620006d15750858301515b600019600386901b1c1916600185901b17855562000676565b600085815260208120601f198616915b828110156200071b57888601518255948401946001909101908401620006fa565b50858210156200073a5787850151600019600388901b60f8161c191681555b5050505050600190811b01905550565b634e487b7160e01b600052601160045260246000fd5b8082028115828204841417620002f957620002f96200074a565b60006020808352835180602085015260005b81811015620007aa578581018301518582016040015282016200078c565b506000604082860101526040601f19601f8301168501019250505092915050565b80516020808301519190811015620006245760001960209190910360031b1b16919050565b80820180821115620002f957620002f96200074a565b60805160a05160c05160e0516101005161012051610140516114c9620008616000396000610bda01526000610bad015260006109d2015260006109aa015260006109050152600061092f0152600061095901526114c96000f3fe608060405234801561001057600080fd5b506004361061018e5760003560e01c806379cc6790116100de57806395d89b4111610097578063d505accf11610071578063d505accf14610349578063dd62ed3e1461035c578063f0f4426014610395578063f2fde38b146103a857600080fd5b806395d89b411461031b578063a65948a314610323578063a9059cbb1461033657600080fd5b806379cc6790146102ae5780637ecebe00146102c15780638456cb59146102d457806384b0196e146102dc5780638da5cb5b146102f7578063936a42161461030857600080fd5b80633f4ba83a1161014b5780635c975abb116101255780635c975abb1461024057806361d027b31461025257806370a082311461027d578063715018a6146102a657600080fd5b80633f4ba83a1461021057806342966c681461021a578063449a52f81461022d57600080fd5b806306fdde0314610193578063095ea7b3146101b157806318160ddd146101d457806323b872dd146101e6578063313ce567146101f95780633644e51514610208575b600080fd5b61019b6103bb565b6040516101a891906111f4565b60405180910390f35b6101c46101bf36600461122a565b61044d565b60405190151581526020016101a8565b6002545b6040519081526020016101a8565b6101c46101f4366004611254565b610467565b604051601281526020016101a8565b6101d861048b565b61021861049a565b005b610218610228366004611290565b6104ac565b61021861023b36600461122a565b6104b9565b600854600160a01b900460ff166101c4565b600954610265906001600160a01b031681565b6040516001600160a01b0390911681526020016101a8565b6101d861028b3660046112a9565b6001600160a01b031660009081526020819052604090205490565b6102186104e0565b6102186102bc36600461122a565b6104f2565b6101d86102cf3660046112a9565b610507565b610218610525565b6102e4610535565b6040516101a897969594939291906112c4565b6008546001600160a01b0316610265565b61021861031636600461122a565b61057b565b61019b61058d565b610218610331366004611290565b61059c565b6101c461034436600461122a565b6105c6565b61021861035736600461135d565b6105d4565b6101d861036a3660046113d0565b6001600160a01b03918216600090815260016020908152604080832093909416825291909152205490565b6102186103a33660046112a9565b610713565b6102186103b63660046112a9565b6107cd565b6060600380546103ca90611403565b80601f01602080910402602001604051908101604052809291908181526020018280546103f690611403565b80156104435780601f1061041857610100808354040283529160200191610443565b820191906000526020600020905b81548152906001019060200180831161042657829003601f168201915b5050505050905090565b60003361045b818585610808565b60019150505b92915050565b60003361047585828561081a565b610480858585610899565b506001949350505050565b60006104956108f8565b905090565b6104a2610a23565b6104aa610a50565b565b6104b63382610aa5565b50565b6104c1610a23565b6104dc826104d7670de0b6b3a764000084611453565b610adb565b5050565b6104e8610a23565b6104aa6000610b11565b6104fd82338361081a565b6104dc8282610aa5565b6001600160a01b038116600090815260076020526040812054610461565b61052d610a23565b6104aa610b63565b600060608060008060006060610549610ba6565b610551610bd3565b60408051600080825260208201909252600f60f81b9b939a50919850469750309650945092509050565b610583610a23565b6104dc8282610adb565b6060600480546103ca90611403565b6105a4610a23565b6009546104b6906001600160a01b03166104d7670de0b6b3a764000084611453565b60003361045b818585610899565b834211156105fd5760405163313c898160e11b8152600481018590526024015b60405180910390fd5b60007f6e71edae12b1b97f4d1f60370fef10105fa2faae0126114a169c64845d6126c988888861064a8c6001600160a01b0316600090815260076020526040902080546001810190915590565b6040805160208101969096526001600160a01b0394851690860152929091166060840152608083015260a082015260c0810186905260e00160405160208183030381529060405280519060200120905060006106a582610c00565b905060006106b582878787610c2d565b9050896001600160a01b0316816001600160a01b0316146106fc576040516325c0072360e11b81526001600160a01b0380831660048301528b1660248201526044016105f4565b6107078a8a8a610808565b50505050505050505050565b61071b610a23565b6001600160a01b0381166107715760405162461bcd60e51b815260206004820152601760248201527f54726561737572792063616e6e6f74206265207a65726f00000000000000000060448201526064016105f4565b6009546040516001600160a01b038084169216907f4ab5be82436d353e61ca18726e984e561f5c1cc7c6d38b29d2553c790434705a90600090a3600980546001600160a01b0319166001600160a01b0392909216919091179055565b6107d5610a23565b6001600160a01b0381166107ff57604051631e4fbdf760e01b8152600060048201526024016105f4565b6104b681610b11565b6108158383836001610c5b565b505050565b6001600160a01b03838116600090815260016020908152604080832093861683529290522054600019811015610893578181101561088457604051637dc7a0d960e11b81526001600160a01b038416600482015260248101829052604481018390526064016105f4565b61089384848484036000610c5b565b50505050565b6001600160a01b0383166108c357604051634b637e8f60e11b8152600060048201526024016105f4565b6001600160a01b0382166108ed5760405163ec442f0560e01b8152600060048201526024016105f4565b610815838383610d30565b6000306001600160a01b037f00000000000000000000000000000000000000000000000000000000000000001614801561095157507f000000000000000000000000000000000000000000000000000000000000000046145b1561097b57507f000000000000000000000000000000000000000000000000000000000000000090565b610495604080517f8b73c3c69bb8fe3d512ecc4cf759cc79239f7b179b0ffacaa9a75d522b39400f60208201527f0000000000000000000000000000000000000000000000000000000000000000918101919091527f000000000000000000000000000000000000000000000000000000000000000060608201524660808201523060a082015260009060c00160405160208183030381529060405280519060200120905090565b6008546001600160a01b031633146104aa5760405163118cdaa760e01b81523360048201526024016105f4565b610a58610d95565b6008805460ff60a01b191690557f5db9ee0a495bf2e6ff9c91a7834c1ba4fdd244a5e8aa4e537bd38aeae4b073aa335b6040516001600160a01b03909116815260200160405180910390a1565b6001600160a01b038216610acf57604051634b637e8f60e11b8152600060048201526024016105f4565b6104dc82600083610d30565b6001600160a01b038216610b055760405163ec442f0560e01b8152600060048201526024016105f4565b6104dc60008383610d30565b600880546001600160a01b038381166001600160a01b0319831681179093556040519116919082907f8be0079c531659141344cd1fd0a4f28419497f9722a3daafe3b4186f6b6457e090600090a35050565b610b6b610dbf565b6008805460ff60a01b1916600160a01b1790557f62e78cea01bee320cd4e420270b5ea74000d11b0c9f74754ebdbfc544b05a258610a883390565b60606104957f00000000000000000000000000000000000000000000000000000000000000006005610dea565b60606104957f00000000000000000000000000000000000000000000000000000000000000006006610dea565b6000610461610c0d6108f8565b8360405161190160f01b8152600281019290925260228201526042902090565b600080600080610c3f88888888610e95565b925092509250610c4f8282610f64565b50909695505050505050565b6001600160a01b038416610c855760405163e602df0560e01b8152600060048201526024016105f4565b6001600160a01b038316610caf57604051634a1406b160e11b8152600060048201526024016105f4565b6001600160a01b038085166000908152600160209081526040808320938716835292905220829055801561089357826001600160a01b0316846001600160a01b03167f8c5be1e5ebec7d5bd14f71427d1e84f3dd0314c0f7b2291e5b200ac8c7c3b92584604051610d2291815260200190565b60405180910390a350505050565b600854600160a01b900460ff1615610d8a5760405162461bcd60e51b815260206004820152601a60248201527f546f6b656e207472616e7366657273206172652070617573656400000000000060448201526064016105f4565b61081583838361101d565b600854600160a01b900460ff166104aa57604051638dfc202b60e01b815260040160405180910390fd5b600854600160a01b900460ff16156104aa5760405163d93c066560e01b815260040160405180910390fd5b606060ff8314610e0457610dfd83611147565b9050610461565b818054610e1090611403565b80601f0160208091040260200160405190810160405280929190818152602001828054610e3c90611403565b8015610e895780601f10610e5e57610100808354040283529160200191610e89565b820191906000526020600020905b815481529060010190602001808311610e6c57829003601f168201915b50505050509050610461565b600080807f7fffffffffffffffffffffffffffffff5d576e7357a4501ddfe92f46681b20a0841115610ed05750600091506003905082610f5a565b604080516000808252602082018084528a905260ff891692820192909252606081018790526080810186905260019060a0016020604051602081039080840390855afa158015610f24573d6000803e3d6000fd5b5050604051601f1901519150506001600160a01b038116610f5057506000925060019150829050610f5a565b9250600091508190505b9450945094915050565b6000826003811115610f7857610f7861146a565b03610f81575050565b6001826003811115610f9557610f9561146a565b03610fb35760405163f645eedf60e01b815260040160405180910390fd5b6002826003811115610fc757610fc761146a565b03610fe85760405163fce698f760e01b8152600481018290526024016105f4565b6003826003811115610ffc57610ffc61146a565b036104dc576040516335e2f38360e21b8152600481018290526024016105f4565b6001600160a01b03831661104857806002600082825461103d9190611480565b909155506110ba9050565b6001600160a01b0383166000908152602081905260409020548181101561109b5760405163391434e360e21b81526001600160a01b038516600482015260248101829052604481018390526064016105f4565b6001600160a01b03841660009081526020819052604090209082900390555b6001600160a01b0382166110d6576002805482900390556110f5565b6001600160a01b03821660009081526020819052604090208054820190555b816001600160a01b0316836001600160a01b03167fddf252ad1be2c89b69c2b068fc378daa952ba7f163c4a11628f55a4df523b3ef8360405161113a91815260200190565b60405180910390a3505050565b6060600061115483611186565b604080516020808252818301909252919250600091906020820181803683375050509182525060208101929092525090565b600060ff8216601f81111561046157604051632cd44ac360e21b815260040160405180910390fd5b6000815180845260005b818110156111d4576020818501810151868301820152016111b8565b506000602082860101526020601f19601f83011685010191505092915050565b60208152600061120760208301846111ae565b9392505050565b80356001600160a01b038116811461122557600080fd5b919050565b6000806040838503121561123d57600080fd5b6112468361120e565b946020939093013593505050565b60008060006060848603121561126957600080fd5b6112728461120e565b92506112806020850161120e565b9150604084013590509250925092565b6000602082840312156112a257600080fd5b5035919050565b6000602082840312156112bb57600080fd5b6112078261120e565b60ff60f81b881681526000602060e060208401526112e560e084018a6111ae565b83810360408501526112f7818a6111ae565b606085018990526001600160a01b038816608086015260a0850187905284810360c08601528551808252602080880193509091019060005b8181101561134b5783518352928401929184019160010161132f565b50909c9b505050505050505050505050565b600080600080600080600060e0888a03121561137857600080fd5b6113818861120e565b965061138f6020890161120e565b95506040880135945060608801359350608088013560ff811681146113b357600080fd5b9699959850939692959460a0840135945060c09093013592915050565b600080604083850312156113e357600080fd5b6113ec8361120e565b91506113fa6020840161120e565b90509250929050565b600181811c9082168061141757607f821691505b60208210810361143757634e487b7160e01b600052602260045260246000fd5b50919050565b634e487b7160e01b600052601160045260246000fd5b80820281158282048414176104615761046161143d565b634e487b7160e01b600052602160045260246000fd5b808201808211156104615761046161143d56fea2646970667358221220c390ccdc5612a3e545c0f581ecc9e51528df832e985bf3cbe1e810b6af7cca0664736f6c63430008180033",
  "linkReferences": {},
  "deployedLinkReferences": {}
}